:0EC11D0021A7BDCD6E2D0801020408102040A0
:0EC12B00800021D42ECD6E2D3B000306090CA2
:0EC139000F1215181B1E2124272A2D30333615
:0EC14700393B3E414346494B4E5052555759E5
:0EC155005B5E6062646667696B6C6E7071722F
:0EC163007475767778797A7B7B7C7D7DFB7EA8
:0EC17100017FFB7E757D7D7C7B7B7A79787704
:0EC17F007675747271706E6C6B6967666462BF
:0EC18D00605E5B59575552504E4B4946434138
:0EC19B003E3B393633302D2A2724211E1B1837
:0EC1A90015120F0C09060300FDFAF7F4F1EE73
:0EC1B700EBE8E5E2DFDCD9D6D3D0CDCAC7C5B0
:0EC1C500C2BFBDBAB7B5B2B0AEABA9A7A5A2B6
:0EC1D300A09E9C9A9997959492908F8E8C8B3B
:0EC1E1008A898887868585848383FB82018115
:0EC1EF00FB823A8383848585868788898A8BC4
:0EC1FD008C8E8F9092949597999A9C9EA0A2FA
:0EC20B00A5A7A9ABAEB0B2B5B7BABDBFC2C54C
:0EC21900C7CACDD0D3D6D9DCDFE2E5E8EBEE24
:0EC22700F1F4F7FAFD0021D42FCD6E2D810029
:0EC23500810081008100810081008100810074
:0EC24300810081008100810081008100810066
:0EC25100810081008100810081008100810058
:0EC25F0081008100810081008100810081004A
:0EC26D0081008100810081008100810081003C
:0EC27B0081008100810081008100810081002E
:0EC28900810081008100810081008100810020
:0EC29700810081008100810081008100810012
:0EC2A500810081008100810081008100810004
:0EC2B3008100810081008100810081008100F6
:0EC2C1008100810081008100810081008100E8
:0EC2CF008100810081008100810081008100DA
:0EC2DD008100810081008100810081008100CC
:0EC2EB0081008100C2000021B45ECD6E2D8165
:0EC2F9000081008100810081008100810081B0
:0EC307000081008100810081008100810081A1
:0EC31500008100810081008100810081008193
:0EC32300008100810081008100810081008185
:0EC33100008100810081008100810081008177
:0EC33F00008100810081008100810081008169
:0EC34D0000810081008100810081008100815B
:0EC35B0000810081008100810081008100814D
:0EC3690000810081008100810081008100813F
:0EC37700008100810081008100810081008131
:0EC38500008100810081008100810081008123
:0EC39300008100810081008100810081008115
:0EC3A100008100810081008100810081008107
:0EC3AF000081008100C2000021948DCD6E2D12
:0EC3BD008100810081008100810081008100EB
:0EC3CB008100810081008100810081008100DD
:0EC3D9008100810081008100810081008100CF
:0EC3E7008100810081008100810081008100C1
:0EC3F5008100810081008100810081008100B3
:0EC403008100810081008100810081008100A4
:0EC41100810081008100810081008100810096
:0EC41F00810081008100810081008100810088
:0EC42D0081008100810081008100810081007A
:0EC43B0081008100810081008100810081006C
:0EC4490081008100810081008100810081005E
:0EC45700810081008100810081008100810050
:0EC46500810081008100810081008100810042
:0EC47300810081008100C20000FD2194BDFD0A
:0DC48100360000FD2194BDFD360100FD21B7
:0EC48E0096BDFD360000FD2196BDFD36010075
:0EC49C00FD21AFBDFD360000FD21B0BDFD3617
:0EC4AA000000FD21B1BDFD360000FD21B1BD39
:0EC4B800FD360100FD21B3BDFD360000FD2163
:0EC4C600B3BDFD360100FD21B5BDFD36000001
:0EC4D400FD21B6BDFD360000FD21B6BDFD36D2
:0EC4E2000100FD21B8BDFD360000FD21B8BDF2
:0EC4F000FD360100FD21BABDFD360000FD2124
:0EC4FE00BABDFD360100FD21BCBDFD360000BB
:0EC50C00FD21BCBDFD36010021BEBDCD6E2D52
:0DC51A00E00000FD21DEBDFD360000FD212A
:0EC52700DEBDFD360100FD21E0BDFD36000049
:0EC53500FD21E0BDFD360100FD21E2BDFD3619
:0EC543000000FD21E3BDFD360000FD21E4BD3A
:0EC55100FD360000FD21E4BDFD360100FD2198
:0EC55F00E6BDFD360000FD21E6BDFD36010003
:0EC56D00FD21E8BDFD360001FD21E8BDFD36D3
:0EC57B000100FD21ECBDFD360000FD21ECBDF0
:0EC58900FD360100FD21EEBDFD3600D4FD2182
:0EC59700EEBDFD360100FD21F0BDFD3600FFBA
:0EC5A500FD21F0BDFD3601FFFD21F2BDFD368A
:0EC5B3000000FD21F2BDFD360100FD21F4BDAA
:0EC5C100FD360000FD21F4BDFD360100FD2118
:0EC5CF00F6BDFD360000FD21F6BDFD36010073
:0EC5DD00FD21F8BDFD360000FD21F8BDFD3644
:0EC5EB000100FD21FABDFD360000FD21FABD64
:0EC5F900FD360100FD21FCBDFD360000FD21D8
:0EC60700FDBDFD360001FD21FDBDFD3601002B
:0EC61500FD21FFBDFD360000FD21FFBDFD36FD
:0EC623000100FD2101BEFD3600D6FD2101BE45
:0EC63100FD360100FD2103BEFD360096FD2101
:0EC63F0003BEFD360100FD2105BEFD360000E4
:0EC64D00FD2105BEFD360100FD2107BEFD36B4
:0EC65B000000FD2107BEFD360100FD2109BED5
:0EC66900FD360000FD2109BEFD360100FD2159
:0EC677000BBEFD360000FD210BBEFD3601009E
:0D040C00DDE5DD210000DD393EA7DD8605C0
:0D0419004F3EBDDD8E06470ADDA60420041F
:0E0426003E011801AFB7D6013E00174F692600
:0E04340000DDE1C978007A007D0080008300C1
:0E044200860089008C008F00920095009800C3
:0E0450009A009D00A000A300A500A800AB002C
:0E045E00AD00B000B300B500B800BA00BD009C
:0E046C00BF00C100C400C600C800CA00CC001A
:0E047A00CE00D000D200D400D600D800DA00A8
:0E048800DB00DD00DE00E000E100E300E40048
:0E049600E500E600E700E800E900EA00EB0000
:0E04A400EC00ED00ED00EE00EE00EF00EF00CA
:0E04B200EF00EF00EF00F000EF00EF00EF00B2
:0E04C000EF00EF00EE00EE00ED00ED00EC00AE
:0E04CE00EB00EA00E900E800E700E600E500C8
:0E04DC00E400E300E100E000DE00DD00DB00F4
:0E04EA00DA00D800D600D400D200D000CE0038
:0E04F800CC00CA00C800C600C400C100BF008E
:0E050600BD00BA00B800B500B300B000AD00F3
:0E051400AB00A800A500A300A0009D009A0067
:0E0522009800950092008F008C0089008600E2
:0E053000830080007D007A0078007500720064
:0E053E006F006C0069006600630060005D00E5
:0E054C005A005700550052004F004C004A0064
:0E055A004700440042003F003C003A003700DA
:0E0568003500320030002E002B002900270045
:0E0576002500230021001F001D001B0019009E
:0E058400170015001400120011000F000E00E9
:0E0592000C000B000A0009000800070006001C
:0E05A00005000400030002000200010001003B
:0E05AE0000000000000000000000000000003F
:0E05BC0000000000000000000100010002002D
:0E05CA00020003000400050006000700080000
:0E05D80009000A000B000C000E000F001100BD
:0E05E600120014001500170019001B001D0064
:0E05F4001F00210023002500270029002B00F6
:0E0602002E0030003200350037003A003C0078
:0E0610003F004200440047004A004C004F00EB
:0E061E005200550057005A005D006000630056
:0E062C00660069006C006F0072007500F5C575
:0E063A00D5E5FDE5F3DB99CDE71FCD5E22FD92
:0E0648002194BDFD34002007FD2194BDFD343A
:0E06560001FD2196BDFD34002007FD2196BD5B
:0E066400FD3401FBFDE1E1D1C1F1ED4DF5C525
:0E067200D5E5FDE5F33E01F533CD382B334DD4
:0E068000210000E579F533CD0C04F133444D33
:0E068E0079B028192194BD4E060021D42E0902
:0E069C007EF5333E17F533CDF92AF1DB9918C0
:0E06AA0018DB99FD2194BDFD34002007FD21D1
:0E06B80094BDFD3401CDE71FCD5E22FBFDE1B8
:0E06C600E1D1C1F1ED4DDDE5DD210000DD39B2
:0E06D40021D2FF39F9210000394D44212E00BA
:0D06E200E53E00F533C5CD0C28F1F13321C4
:0E06EF000000394D44210F0009EB3E80123E01
:0E06FD000002DD5E04DD560503210B00E5D58D
:0D070B00C5CDCB27F1F1F121000039E5CD7E
:0E071800981DF1AFB528052E00C39807DD6EC1
:0E07260007DD6608E5DD7E06F533CDCA1EF15F
:0E073400330E0079D6D5D28D07C52174BCE5F1
:0D074200CD001EF17DC147B728052E00C374
:0E074F00980721000039C5E5CDE61DF17DC1FA
:0D075D0047B728042E001833AFB12011114A
:0E076A007BBCC53E79F533D5CD261FF133C1DA
:0E077800180FC53E80F5332174BCE5CD261F59
:0D078600F133C10CC3370721000039E5CD68
:0E079300CC1DF12E01DDF9DDE1C9218000E56C
:0E07A1003E00F5332174BCE5CD0C28F1F13398
:0E07AF00C9DDE5DD210000DD3921D2FF39F979
:0E07BD00210000394D44212E00E53E00F533A9
:0E07CB00C5CD0C28F1F133CD9D07210000397A
:0E07D9004D44210F0009EBDD7E06123E0002AA
:0E07E700DD5E04DD560503210B00E5D5C5CD12
:0E07F500CB27F1F1F121000039E5CD981DF17F
:0D080300AFB528042E0018402174BCE5CDCF
:0E081000001EF1AFB528042E001830210000A4
:0E081E0039E5CDE61DF1AFB528042E00181FF8
:0E082C00DD4E060600117BBCC5D521F4BCE5EF
:0E083A00CDCB27F1F1F121000039E5CDCC1D29
:0E084800F12E01DDF9DDE1C901000078D6FFD7
:0E085600D05916FF1C15AFB220FA4B0418EF54
:0E086400DDE5DD210000DD3921D2FF39F9216B
:0E0872000000394D44212E00E53E00F533C54F
:0E088000CD0C28F1F133CD9D07210000394D3C
:0E088E0044210F0009EB3E80123E0002DD5EA9
:0E089C0004DD560503210B00E5D5C5CDCB27A5
:0E08AA00F1F1F121000039E5CD981DF1AFB557
:0E08B80028052E00C3230901000079DD9606F5
:0D08C60078DD9E07F21809C52174BCE5CD50
:0E08D300001EF15DC1AFB328042E00184321B2
:0E08E100000039C5E5CDE61DF15DC1AFB328BD
:0E08EF00042E00182FDD7E08815FDD7E098853
:0E08FD0057C5218000E52174BCE5D5CDCB2781
:0E090B00F1F1F1C1218000094D44C3C2082161
:0E091900000039E5CDCC1DF12E01DDF9DDE148
:0E092700C9DDE5DD210000DD39DD4E06DD46CF
:0E09350007C5C53E00F53321D42FE5CD0C28B3
:0E094300F1F133C121D42FE5C5DD6E04DD6670
:0E09510005E5CD6408F1F1F1DD7E0AF533DD38
:0E095F006E08DD6609E521D42FE5CDDC1BF125
:0E096D00F133DDE1C9DDE5DD210000DD39F506
:0E097B003A96BDD6043A97BDDE00F28B09C352
:0E098900390A2196BD36002197BD36000E00BA
:0C09970079D620D2310A3E74815F3EBC4C
:0E09A300CE00571A4758CB3BCB3BCB3BCB3B50
:0D09B10078E60FDD77FF51143E74826F3E33
:0C09BE00BCCE006756DD72FE3EF4816F77
:0D09CA003EBCCE006756CB3ACB3ACB3ACBC1
:0C09D7003A7B9230011C3EF4816F3EBC64
:0E09E300CE00677EE60F47DD7EFF903003DD1D
:0C09F10034FF3E7481473EBCCE00577BB3
:0E09FD0007070707E6F0DDB6FF6862774104E2
:0C0A0B003EF4805F3EBCCE00571A5FDD59
:0C0A17007EFE9330103E7480473EBCCE43
:0E0A2300005F68677E3C6863770C0CC3970920
:0E0A31002174BCE5CDAB1EF1DDF9DDE1C9DDC0
:0E0A3F00E5DD210000DD39F53E20FD2196BDEC
:0D0A4D00FD96003E00FD2196BDFD9E01F2CC
:0E0A5A00760A2196BD36002197BD3600FD219B
:0E0A6800B1BDFD34002007FD21B1BDFD3401FC
:0D0A76003E0AFD21B1BDFD96003E00FD21B0
:0E0A8300B1BDFD9E01F2950A21B1BD360021E4
:0E0A9100B2BD3600FD21B3BDFD34002007FDCF
:0E0A9F0021B3BDFD340121AFBD360021AFBD36
:0D0AAD004E060079D6D278DE00F22F0B2124
:0E0ABA00B3BD79865F78238E1600CB23CB1256
:0E0AC800213804195E2356DD73FEDD72FF2116
:0E0AD60098BD3600233600119ABDEB712370D7
:0E0AE400119CBDEBDD7EFE7723DD7EFF7711DA
:0E0AF2009EBD0303036B6271237021A0BD360D
:0E0B00000023360121A2BD36012336003E003F
:0C0B0E0032A4BD32A5BD3ED032A6BD21F0
:0C0B1A0098BDE5CD401FF121AFBD4E217C
:0E0B2600AFBD79C60277C3AA0ADDF9DDE1C9C9
:0E0B3400DDE5DD210000DD3921FAFF39F9DDB4
:0E0B420036FC00DD36FD00DD36FA00DD36FB48
:0E0B500000211700E5CDF92AF1AFFD21B5BD5A
:0E0B5E00FDB600C2C90BCD471E21025FE5CDDA
:0E0B6C00F92AF1DD36FE00DD36FF00DD7EFEEB
:0E0B7A00D610DD7EFFDE00F2B90BDD4EFEDD93
:0E0B880046FFCB21CB1021BEBD094D44DD5EE2
:0E0B9600FEDD56FFCB23CB12CB23CB12CB239D
:0E0BA400CB12CB23CB126960732372DD34FEBB
:0E0BB2002003DD34FF18BE2114BDE5CDAB1EBF
:0E0BC000F121B5BD3601C3520D3ADEBDFD2157
:0E0BCE00DEBDFDB6012010DD36FC00DD36FD7B
:0E0BDC0000DD36FA08DD36FB003ADEBDD6013C
:0E0BEA0020063ADFBDB728021810DD36FC08E1
:0E0BF800DD36FD00DD36FA10DD36FB00FD2196
:0E0C0600BCBDFD360003FD21BCBDFD36010066
:0E0C14003ABCBDD60B3ABDBDDE00F2290DDDA7
:0E0C22007EFCFD21BABDFD7700DD7EFDFD21CB
:0E0C3000BABDFD77013ABABDDD96FA3ABBBDFA
:0E0C3E00DD9EFBF2160D3AE922FD21EB22FDB0
:0E0C4C00A60021ED22B64FCB3921B6BD712195
:0C0C5A00B7BD36003AED2221B8BD77216D
:0E0C6600B9BD360021B6BD4E21B7BD46CB212B
:0E0C7400CB1021BEBD094E23462198BD712331
:0E0C820070019ABD21B8BD5E21B9BD56CB23CD
:0E0C9000CB1221BEBD195E235621000319EBC5
:0D0C9E006960732372019CBD21BABD5E2107
:0E0CAB00BBBD56CB23CB1221BEBD195E235616
:0D0CB9006960732372019EBD21BCBD5E21E8
:0E0CC600BDBD56CB23CB1221BEBD195E2356F9
:0E0CD40021000219EB696073237221A0BD3666
:0E0CE2001023360021A2BD36102336003E003E
:0C0CF00032A4BD32A5BD3ED032A6BD210D
:0E0CFC0098BDE5CD401FF1FD21BABDFD3400CD
:0E0D0A002007FD21BABDFD3401C3350CFD21CB
:0E0D1800BCBDFD34002007FD21BCBDFD340133
:0E0D2600C3140CFD21DEBDFD34002007FD21AD
:0D0D3400DEBDFD34013ADEBDD60220063AD8
:0D0D4100DFBDB72802180A21DEBD360021F3
:0E0D4E00DFBD3600DDF9DDE1C9211700E5CD7E
:0E0D5C00F92AF176210140E5CDF92A3E283230
:0E0D6A00E0BDF1FD21E0BDFD3601003AE0BD27
:0E0D7800D6D43AE1BDDE00F2B00D3AE0BDF592
:0E0D8600333E13F533CDF92AF1210016E5CDE9
:0E0D9400F92AF17621E0BD7EC604232BC54F5F
:0E0DA200237E47792B7778C1CE00237718C5C2
:0D0DB000211700E5CDF92AF1210006E5CD5F
:0E0DBD00F92AF1210160E5CDF92AF1C9DDE541
:0E0DCB00DD210000DD39F5DD4E04DD7E04176C
:0E0DD9009F4779C6BFDD77FE78CEFFDD77FF3E
:0C0DE7003E87DD86FE5F3E0EDD8EFF576E
:0E0DF3001A5F1600217F0019EB2198BD7323B3
:0C0E010072119ABD3EC7DD86FE4F3E0E0A
:0E0E0D00DD8EFF470A4F0600210002094D440A
:0E0E1B00EB712370019CBD21E2BD5E160069E3
:0E0E290060732372019EBD21E3BD5E16006959
:0D0E37006073237201A0BD3E07DD86FE5FE3
:0D0E44003E0FDD8EFF571A5F1600696073C8
:0D0E5100237221A2BD36082336003E003278
:0C0E5E00A5BD3E9032A6BD2198BDE5CD9B
:0C0E6A00401FF13E07DD86FE4F3E0FDD0D
:0E0E76008EFF470A4F0D21E2BD7E8177DDF928
:0E0E8400DDE1C9010911192129313941464E1C
:0E0E9200565E010A121A232B333C444C565E66
:0E0EA000670000000000000109111820282F33
:0E0EAE00373F454C545A64010911192129306F
:0E0EBC0038404A525A0000000000001C1C1C66
:0E0ECA001C1C1C1C1C1C1C1C1C1C252525256E
:0E0ED8002525252525252525250000000000BF
:0E0EE600003737373737373737373737373733
:0E0EF4003740404040404040404040404000B9
:0E0F02000000000000070707070707070704A5
:0E0F100007070709080707080707080707096A
:0E0F1E0007080700000000000007070607078D
:0E0F2C00070707050607050907070707070758
:0E0F3A0006070709070707000000000000DD9A
:0E0F4800E5DD210000DD39F5DD4E04DD7E041F
:0E0F5600179F4779C6BFDD77FE78CEFFDD77A7
:0C0F6400FF3E87DD86FE5F3E0EDD8EFF47
:0E0F7000571A5F1600217F0019EB2198BD7300
:0C0F7E002372119ABD3EC7DD86FE4F3E77
:0D0F8A000EDD8EFF470A4F060021FF010912
:0E0F97004D44EB712370019CBD21E2BD5E163E
:0E0FA500006960732372019EBD21E3BD5E16DC
:0D0FB30000696073237201A0BD3E07DD865A
:0D0FC000FE5F3E0FDD8EFF571A5F160069C1
:0E0FCD006073237221A2BD360A2336003E0057
:0D0FDB0032A5BD3E9032A6BD2198BDE5CDEA
:0C0FE800401FF13E07DD86FE4F3E0FDD8E
:0E0FF4008EFF470A4F0D21E2BD7E8177DDF9A9
:0E100200DDE1C9DDE5DD210000DD39DD4E0454
:0E101000DD4605DD5E0621E2BD73DD7E0721B3
:0E101E00E3BD770A57B72842037AD620201E7A
:0E102C00FD21E2BDFD3400FD21E2BDFD3400DA
:0E103A00FD21E2BDFD3400FD21E2BDFD3400CC
:0E10480018D77AD65F200D21E3BD7EC609774A
:0E10560021E2BD7318C5C5D5D533CDC90D3304
:0E106400D1C118B9DDE1C9DDE5DD210000DDF7
:0E107200393BDD4E04DD4605DD7E0621E2BD84
:0E108000770A5FB7CAF81003DD73FF21E2BDE7
:0E108E005E16002194BD7B865F7A238E57CBC1
:0E109C002ACB1B1600CB23CB12213804195E81
:0E10AA002356CB3ACB1BCB3ACB1BCB3ACB1BFE
:0E10B800CB3ACB1B21E3BDDD7E078377DD7EC7
:0E10C600FFD620201FFD21E2BDFD3400FD21DC
:0E10D400E2BDFD3400FD21E2BDFD3400FD2132
:0E10E200E2BDFD3400C38110C5DD7EFFF53395
:0E10F000CD470F33C1C38110DDF9DDE1C92109
:0E10FE004A3CE5210B11E5CD0510F1F1C94486
:0E110C0049474954414C20534F554E445320FF
:0E111A0053595354454D5F5F20494E205448B1
:0E1128004520484F5553455F5F20204F4E2015
:0E1136004D53585F5F202020415420524556F3
:0E1144004953494F4E5F5F202020204F4C44FE
:0E115200534B4F4F4C5F202020202044454D32
:0E1160004F5F202020202020434F4D504F0095
:0E116E00DDE5DD210000DD39F53AE6BDFD21AD
:0E117C00E6BDFDB601C2FB1121A0BD36002369
:0D118A00360121A2BD36012336003E0032A1
:0E119700A4BD3E0432A5BD01A6BD3EE002216E
:0E11A50098BD3600233601219CBD360023364E
:0E11B3000101000079D6D478DE00F2DE11765C
:0E11C100119ABDEB3600233600119EBDEB7176
:0E11CF002370C52198BDE5CD401FF1C1031866
:0E11DD00D921E6BD360121E7BD36002108020A
:0E11EB00E5CDF92AF12134BDE5CDAB1EF1CDE5
:0E11F900FD1021A0BD364623360021A2BD36D2
:0E120700022336003E0032A4BD3E0432A5BDD7
:0E12150001A6BD3EE0022198BD3646233600FC
:0E122300219CBD3646233600DD36FE00DD364A
:0D123100FF00DD7EFED6D4DD7EFFDE00F284
:0E123E009612119ABDDD4EFEDD46FFCB28CB89
:0D124C00193AE4BD814F3AE5BD8806002146
:0E125900D42E097E4FCB2979179F47214002E2
:0E126700094D446B62712370219EBDDD7EFE39
:0E1275007723DD7EFF772198BDE5CD401FF188
:0E128300DD7EFEC602DD77FEDD7EFFCE00DDE5
:0E12910077FFC3331221E4BD4E21E5BD46CBED
:0E129F0028CB19CB28CB1921E4BD5E21E5BD7B
:0E12AD0056CB2ACB1BCB2ACB1BCB2ACB1B4309
:0E12BB0079F533C533410E04C5CDEE2BF1F1AC
:0E12C90021E4BD7EC604232BC54F237E47794A
:0E12D7002B7778C1CE002377DDF9DDE1C9DD8C
:0E12E500E5DD210000DD39F5F521F0BDD5FD78
:0E12F30021EEBDFDE5D11A86131BC54F131A5F
:0E13010047791B1278C1238E1312D13AEEBD2C
:0D130F00D6023AEFBDDE00F23A13AFFD2129
:0E131C00F0BD3E00FD9E00FD21F0BDFD7700FE
:0E132A00FD21F0BD3E00FD9E01FD21F0BDFD48
:0D13380077013AEEBDD6D43AEFBDDE00FAE3
:0E1345006813AFFD21F0BD3E00FD9E00FD21AE
:0E135300F0BDFD7700FD21F0BD3E00FD9E01C6
:0E136100FD21F0BDFD77013AEEBDC65CDD77E3
:0E136F00FE3AEFBDCE00DD77FF3ED4DD96FEE8
:0E137D003E00DD9EFFF28D13DD36FED4DD3620
:0E138B00FF003AE8BDD60120063AE9BDB728BA
:0E13990003C3441411A0BDEB364823360011E7
:0E13A700A2BDEB361023360011A4BD3E00128D
:0D13B50011A5BD3E041211A6BD3EE012219F
:0E13C20098BD3648233600119CBD6B6236483C
:0E13D000233600ED4BEEBD59507BDD96FE7AC4
:0E13DE00DD9EFFF22B14219ABDDD75FCDD743F
:0D13EC00FD3AEABD834F3AEBBD8A060021B1
:0E13F900D42E097E4FCB2979179F4721400142
:0D140700094D44DD6EFCDD66FD7123702192
:0E1414009EBD732372D52198BDE5CD401FF11A
:0E142200D121100019EBC3D91321EABD7EC6FB
:0E14300004232BC54F237E47792B7778C1CE3E
:0E143E00002377C3DE1421A0BD3648233600FC
:0E144C0021A2BD36102336003E0032A4BD3270
:0E145A00A5BD01A6BD3EE0022198BD36B62319
:0E1468003600219CBD36B6233600ED4BEEBD9E
:0E14760079DD96FE78DD9EFFF2C814219ABD46
:0E148400DD75FCDD74FD3AECBD815F3AEDBD17
:0E14920088160021D42E195ECB2B7B179F5796
:0E14A00021400119EBDD6EFCDD66FD73237249
:0D14AE00119EBDEB712370C52198BDE5CDE9
:0E14BB00401FF1C1211000094D44C3761421D9
:0E14C900ECBD7EC604232BC54F237E47792B36
:0E14D7007778C1CE002377AFFD21E8BD3E003F
:0E14E500FD9E0021E8BD77FD21E8BD3E00FD23
:0E14F3009E0121E9BD77DDF9DDE1C9DDE5DD12
:0E150100210000DD39F53B3AFABD21FBBDB6F5
:0E150F00C26B15210000E5CDF92AF121010083
:0E151D00E5CDF92AF13E01F533210080E521EC
:0E152B00B45EE5CDDC1BF1F1333E00F533215B
:0E1539000000E521948DE5CDDC1BF1F133CDF2
:0E154700471E210160E5CDF92AF1210902E5D8
:0E155500CDF92AF121FABD360121FBBD360089
:0E1563002154BDE5CDAB1EF1DD36FF00DD7E6F
:0E157100FFD660D2F615ED5BF2BD2198BD737A
:0E157F002372119ABD3AF6BD4F3AF7BDC60170
:0E158D004721F4BD7986DD77FD78238EDD776A
:0E159B00FEDD4EFFCB390600DD7EFD814FDD0B
:0E15A9007EFE88476B62712370219CBD360068
:0E15B700233600019EBDDD5EFF1600CB23CB68
:0E15C50012696073237221A0BD3680233600A8
:0E15D30021A2BD36012336003E0032A4BD32F7
:0C15E100A5BD3ED032A6BD2198BDE5CDD1
:0E15ED00401FF1DD34FFC36F1521F2BD7EC635
:0E15FB0080232BC54F237E47792B7778C1CEF6
:0E1609000023773AF2BDD6003AF3BDDE01FAB7
:0D1617007D1621F2BD360021F3BD36002105
:0E162400F4BD7EC630232BC54F237E47792BA5
:0D1632007778C1CE0023773AF4BDD6C03AD8
:0D163F00F5BDDE00FA661621F4BD3600216F
:0E164C00F5BD360021F6BD7EC600232BC54F2E
:0D165A00237E47792B7778C1CE0123773AA4
:0D166700F6BDD6003AF7BDDE03FA7D162170
:0E167400F6BD360021F7BD3600FD21F8BDFDA4
:0E16820034002007FD21F8BDFD3401DDF9DD47
:0E169000E1C9DDE5DD210000DD3921F8FF397B
:0E169E00F921FFBD36002100BE3600DD5E04DE
:0E16AC00DD56056B62292919292919294D449B
:0E16BA002198BD71237023DD75FEDD74FFDD08
:0E16C8005E06DD56076B6229291929291929AA
:0E16D60011000319DD75FCDD74FDDD6EFEDD17
:0E16E40066FFDD7EFC7723DD7EFD77119CBD69
:0E16F200DD7E08DD77FADD36FB00EBDD7EFAEB
:0E1700007723DD7EFB77119EBDDD7E09DD7750
:0E170E00F8DD36F900EBDD7EF87723DD7EF99D
:0E171C007711A0BDEB362A23360011A2BDEBDB
:0E172A00362A23360011A4BD3E001211A5BDC3
:0E1738003E001211A6BD3E9912C52198BDE5D6
:0E174600CD401FF1C12198BD712370219ABDC5
:0E175400DD7EFC7723DD7EFD77219CBDDD7EF2
:0E176200FA7723DD7EFB77019EBD3AFFBDDDE9
:0E17700086F85F3A00BEDD8EF957696073237C
:0E177E007221A0BD362A23360021A2BD362AD4
:0E178C002336003E0032A4BD32A5BD3E9A3287
:0E179A00A6BD2198BDE5CD401FF1DDF9DDE1D2
:0E17A800C93AFDBDD60120063AFEBDB72802A3
:0E17B600180821021FE5CDF92AF1AF21FCBD74
:0D17C400B6C24E18FD21FCBDFD360001210E
:0E17D100A0BD360823360021A2BD36D4233633
:0E17DF00003E0032A4BD32A5BD01A6BD3ED025
:0E17ED00022198BD36F8233600219ABD360041
:0E17FB00233600219EBD360023360001F80083
:0E18090078CB7F203876119CBDEB71237011D7
:0E1817009EBDEB3600233600C52198BDE5CD01
:0E182500401FF1C1119EBDEB3600233601C5F8
:0E1833002198BDE5CD401FF1C179C6F84F7870
:0E184100CEFF4718C32174BDE5CDAB1EF1FDEF
:0E184F002105BEFD34002007FD2105BEFD343D
:0E185D00013E08FD2105BEFD96003E00FD2166
:0E186B0005BEFD9E01F02105BE36002106BE21
:0E18790036003E00FD2103BEFD96003E00FD40
:0E1887002103BEFD9E01F211192103BE7EC693
:0D189500F077237ECEFF773A03BED6AA3A45
:0C18A20004BEDE00F2C4182103BE4E217B
:0D18AE0001BE4679F533C5332A09BEE52A8F
:0E18BB0007BEE5CD9216F1F1F1FD2107BEFD4D
:0E18C90034002007FD2107BEFD34013A07BEA2
:0E18D700D6043A08BEDE00FAFB182107BE3622
:0E18E500002108BE3600FD2109BEFD340020A2
:0E18F30007FD2109BEFD34013A09BED6023AB6
:0E1901000ABEDE00F82109BE3600210ABE36FD
:0E190F0000C92101BE7EC6EB77237ECEFF7796
:0E191D00210BBE7EC60B232BC54F237E4779C0
:0E192B002B7778C1CE0023773EC0FD210BBE86
:0D193900FD96003E00FD210BBEFD9E01F25B
:0D1946005219210BBE3600210CBE360021C7
:0E19530003BE3A0BBEC696773A0CBECE0023FA
:0E19610077C90E00118000C5D5CD452DD1C12E
:0E196F00C5D521311BE5CD7C26F1D1C1C5D5F2
:0E197D00213F1BE5CD7C26F1D1C121F9253695
:0E198B000321FA253601C5D5CDFB25D1C1C5F6
:0E199900D5214D1BE5CD7C26F1D1C1C5D5CDA4
:0E19A700252D45D178C147B72803118200C510
:0E19B500D5CD471ED1C143C5C5333E09F5331C
:0E19C300CDF92AF1C1C521551BE5CD7C26F1D9
:0E19D100C1C5CD9D07C1C52174BCE5CDAB1EBF
:0E19DF00F1C1C5211700E5CDF92AF1C1C53EC1
:0E19ED0020F53321621BE5CDB007F133C1C5F3
:0D19FB00212000E521F4BCE52134BDE5CD3F
:0E1A0800CB27F1F1F1C1C53E20F533216E1B55
:0D1A1600E5CDB007F133C1C5212000E52169
:0E1A2300F4BCE52154BDE5CDCB27F1F1F1C1B6
:0E1A3100C53E20F533217A1BE5CDB007F13319
:0E1A3F00C1C5212000E521F4BCE52174BDE500
:0D1A4D00CDCB27F1F1F1C1C53E20F53321CD
:0E1A5A00861BE5CDB007F133C1C5210100E5C3
:0E1A68002E00E5216A08E521921BE5CD280934
:0E1A7600F1F1F1F1C1C5210100E5210080E58B
:0E1A8400217F09E5219E1BE5CD2809F1F1F136
:0E1A9200F1C1C5210000E52E00E521C00FE5E1
:0E1AA00021AA1BE5CD2809F1F1F1F1C1C52104
:0E1AAE000000E52680E521530EE521B61BE57C
:0E1ABC00CD2809F1F1F1F1C1C5CD9D07C1C5DD
:0E1ACA002174BCE5CDAB1EF1C1C5213806E587
:0E1AD800CD5228F1C1AFB1202D763A94BDD683
:0E1AE600403A95BDDE00F2F61AC5CD7209C178
:0D1AF4001805C5CDA917C1C5210801E5CD14
:0E1B01007728F17DC147B728D30E0118CF76A3
:0E1B0F00CD6E28CD6A26CD5E223E00F533CD88
:0E1B1D009D283321C21BE5CD7C26F13E00F54C
:0E1B2B0033CD341E33C964656D6F20696E6959
:0E1B3900740D0A0D0A006D7573696320696EE4
:0E1B470069742E2E2E00646F6E652E0A0A0041
:0E1B550064656D6F2073746172740D0A005424
:0E1B630057495354455220504C3500544631DA
:0E1B71002020202020504C3500424F58455374
:0E1B7F00202020504C350042554C425320206F
:0E1B8D0020504C35004453534C4F474F2050CE
:0E1B9B00434B0042554C425320202050434BF8
:0E1BA90000545749535445522050434B0042BC
:0E1BB7004F58455320202050434B0064656D6D
:0B1BC5006F20657869740D0A0D0A009E
:0E010000C306044154313001580F1B0206DFC4
:0E010E00001F0128013B014E0177019401A35F
:0E011C0001AF010000000000000D21010100F4
:0E012A0032603A00BC14003C3420200C080C5B
:0E0138000D21010100723F175E2FE24E280DCF
:0E0146004623E002230D210101007E3F153209
:0E015400147E2C122A2962270836276E260CEC
:0E0162002A27222A16341A2C122912280A28BB
:0E0170000A2402220D21010100EC0F000CBC3C
:0E017E000F00BC03003C34302C242424201C31
:0E018C001C1C1C140C0D210101003621780CE6
:0E019A0030680C20580C0D96010600341C280D
:0E01A80014240C180DAA01010034740C346CE0
:0E01B6000C6C182C680C245C0C541810540CA3
:0E01C40014500C4C1808480C04480C44180247
:0E01D2002042200C022042200C422018022065
:0E01E00042200C022042200C4220180D21016A
:0E01EE0040F7F7F7440200FC03CA02E80300E2
:0E01FC004502CA02E803004502CA02080300D9
:0E020A004502CA02080300450265030803000E
:0E021800450265030803004502CA0208030000
:0E02260045029B0308030045029B03080300EA
:0E023400450265030803004502650308030147
:0E024200F4010072E0000001D260027260015F
:0E025000028A60037260010433D2600293934D
:0E025E008A600302D2600293726001023302D2
:0E026C008A6003726001D26002937260010228
:0E027A00D26002938A600302D260027B7C6035
:0E02880001023DD260028A60037C600102D256
:0E02960060027C600102D26002938A60030263
:0E02A400D260027F7860010239D260028A6067
:0E02B2000378600102D2600278600102D2601F
:0E02C000027F8A600302BE600293CEE000005F
:0E02CE0004027B024B024B02510255065902FC
:0E02DC0089027B024B024B02510255064B0277
:0E02EA0093027B024B024B02510255024B0263
:0E02F800590299027B024B024B02510255063D
:0E0306004B0072E000000402BA6005024200E3
:0E031400024200D2600372600402BA60050A61
:0E03220072600402BA600506420002726004B6
:0E03300002BA60050A7C600402AC6005064259
:0E033E0000D260037C60044200AC60050A78C7
:0E034C00600442004200A860050442000278EE
:0E035A00600402A8600506D2600393A2E000D2
:0E0368000003044200CE60060689048F047B69
:0E0376000A8F0689048F04930A8F0689048F6C
:0E038400047B064200028102420042008542D4
:0E0392000002814200027B4200C0E000000732
:0E03A0007F810442007B4200024200D26004D2
:0E03AE004200C0600706898589067F42004232
:0E03BC000002CE600402C4600742004200024C
:0E03CA007B777B08D26004029308D06002911A
:0E03D800BA6007777B08CE6004029308D060FD
:0E03E6000291C0E0000004027B1A81027B1A23
:0E03F4008902811A8902810072E00000033E36
:0A04020033420000CD0FBEC3D01B33
:0C1BD000D51196C9ED530DBED1C36319A9
:02BE0D00000033
:01C99500C9D8
:04BE0F00010001002D
:0E1BDC00DD220FBEED7311BEDDE5DD21000040
:0E1BEA00DD39DD6E04DD6605DD5E06DD5607C5
:0E1BF800DD460878D601CD701C232323233E42
:0E1C060080D9110100D9CD6A1C38070E98ED67
:0D1C1400A31318F44E230600CB792816CD3B
:0E1C21006A1CCB10CD6A1CCB10CD6A1CCB10F8
:0E1C2F00CD6A1C3802CBB903D9626B43D9CD04
:0E1C3D006A1CD9300A0418F6D9CD6A1CD9EDFC
:0E1C4B006A10F723D9DD2A0FBEED7B11BED83B
:0E1C5900E5D9E5D9626BED42C1F5CD8F1CF1E6
:0E1C6700E118A287C07E2317C97A171717E667
:0E1C750007D399E60432961C32AF1C3E8ED384
:0E1C8300997BD3997AE63FF640D399C9F37C5A
:0E1C9100E6C00707F600D3993E8ED3997DD3A7
:0E1C9F00997CE63FD39923DB98087AE6C007CC
:0E1CAD0007F600D399003E8ED399007BD399A1
:0E1CBB00007AE63FF640D3991308D398FB0B4E
:051CC90079B020C2C942
:04BE13000100010029
:0E1CCE00AF01A1FFD3A03CED41D3A03CED41FE
:0E1CDC00D3A03CED41D3A03CED41D3A03CEDA4
:0E1CEA0041D3A03CED41D3A03CED41D3A00678
:0E1CF800BFED41C9DD2213BEED7315BEDDE563
:0E1D0600DD210000DD39DD6E04DD6605DD5EE9
:0E1D140006DD5607CDCE1C0EA1E5EB24D9E16D
:0E1D2200011000110000D9D9789130447E479D
:0E1D3000E60F23D947D97A91303F7E57E60F50
:0E1D3E0023D957D97B91303A7E5FE60F23D927
:0E1D4C005F3E08D3A03CED41D3A03CED51D347
:0D1D5A00A0ED5900000000002D20C425C29E
:0E1D6700291DDD2A13BEED7B15BEC947000005
:0E1D7500000018BD570000000018C25FD90022
:041D8300000018C67E
:0B1D8700210200395E0E02CD0500C9EC
:061D92000E08CD0500C99A
:0E1D9800DDE5DD210000DD39DD5E04DD5605F0
:0E1DA6000E0FCD05003217BE6FDDE1C9DDE581
:0E1DB400DD210000DD39DD5E04DD56050E1672
:0E1DC200CD05003217BE6FDDE1C9DDE5DD2184
:0D1DD0000000DD39DD5E04DD56050E10CD8E
:0D1DDD0005003217BE6FDDE1C9DDE5DD2137
:0D1DEA000000DD39DD5E04DD56050E14CD70
:0D1DF70005003217BE6FDDE1C9DDE5DD211D
:0D1E04000000DD39DD5E04DD56050E1ACD4F
:0D1E110005003217BE6FDDE1C9DDE5DD2102
:0D1E1E000000DD39DD5E04DD56050E15CD3A
:0D1E2B0005003217BE6FDDE1C9DDE5DD21E8
:0E1E38000000DD39DD46040E62CD0500DDE15F
:011E4600C9D2
:0D1E4700DDE5FD2AC0FCDD215F003E05CD7C
:0E1E54001C003E1FD3993E82D399AFD3993E16
:0E1E620087D3993E62D3993E81D399DDE1C9C1
:0D1E7000DDE5FD2AC0FCDD215F003E06CD52
:0E1E7D001C003E1FD3993E82D399AFD3993EED
:0E1E8B0087D3993E62D3993E81D399DDE1C998
:0D1E9900DDE5FD2AC0FCDD215F003E00CD2F
:0E1EA6001C00DDE1C9DDE5DD210000DD39DDD8
:0E1EB4006E04DD6605AFF3D3993E90FBD39923
:0E1EC200019A20EDB3DDE1C9DDE5DD21000070
:0E1ED000DD39DD7E04DD6E05DD6606CB041710
:0E1EDE00CB0417CB3CCB3CF3D3993E8ED3996B
:0E1EEC007D00D3997CF640FBD399DDE1C9DD82
:0E1EFA00E5DD210000DD39DD7E04DD6E05DD55
:0E1F08006606CB0417CB0417CB3CCB3CF3D3BF
:0E1F1600993E8ED3997D00D3997CFBD399DD43
:0E1F2400E1C9DDE5DD210000DD39DD6E04DD03
:0E1F32006605DD46067E23D39810FADDE1C970
:0E1F4000DDE5DD210000DD393E02F3D3993EE0
:0E1F4E008FD399DB991F3E00D3993E8FD39914
:0E1F5C00FBDA481FDD6E04DD66053E20F3D380
:0E1F6A00993E91D39906000E9BEDA3EDA3EDD9
:0E1F7800A3EDA3EDA3EDA3EDA3EDA3EDA3ED6B
:0E1F8600A3EDA3EDA3EDA3EDA3EDA3FBDDE121
:0E1F9400C9DDE5DD210000DD39DD6E04DD660E
:0E1FA200053E20F3D3993E91D3990E9B3E024B
:0E1FB000F3D3993E8FD399DB991F3E00D3994E
:0E1FBE003E8FFBD399DAAE1FEDA3EDA3EDA38A
:0E1FCC00EDA3EDA3EDA3EDA3EDA3EDA3EDA317
:0D1FDA00EDA3EDA3EDA3EDA3EDA3DDE1C9A3
:0E1FE700F5C5D5E5DDE5FDE53E013DC2B921BC
:0E1FF5003E013D20682100007E231F30077E44
:0E20030023666F7E231F1F300511AF20EDA056
:0E2011001F3005111421EDA01F30051179219B
:0E201F00EDA0118E20EDA0EDA011F320EDA09C
:0D202D00EDA0115821EDA0EDA01F30051110
:0D203A006120EDA01F30085E235623ED53FA
:0E2047004D2022FB1F210000226B203E0132A3
:09205500662032892032EE2032AF
:0D205E0053213E0132F61F3E013D201B21A3
:0E206B0000007E23CB3F300FCB3F20027E23B0
:0D2079003002180332B8213E01226B2032E4
:0E20860066203E013D205D210000CDA52422F4
:0E2094008E2038527A1F3005E60F323B22CBE9
:0E20A200123004DD222922CB12303B7BC60017
:0E20B000323A22210000222622CB12380B21C8
:0D20BE0000003A4B22324322181D68290110
:0D20CB000000097E23666F7E23324B223217
:0E20D80043227EB7280332D5222322BE2022C7
:0D20E6003D223E013289203E013D205D215A
:0E20F3000000CDA52422F32038527A1F3005BC
:0E210100E60F320722CB123004DD22F521CB8F
:0D210F0012303B7BC6003206222100002268
:0D211C00F221CB12380B2100003A172232BD
:0E2129000F22181D6829010000097E23666F31
:0D2137007E23321722320F227EB72803329A
:0C214400D522232223212209223E013251
:0E215000EE203E013D205D210000CDA52422A1
:0E215E00582138527A1F3005E60F32D621CBB9
:0E216C00123004DD22C421CB12303B7BC600B2
:0E217A0032D52121000022C121CB12380B21C9
:0D21880000003AE62132DE21181D68290111
:0D2195000000097E23666F7E2332E62132B2
:0E21A200DE217EB7280332D522232288212297
:0E21B000D8213E013253213E0132F01FFD21A5
:0E21BE00E6222100001100001922C121CB2CC5
:0E21CC00CB1DCB2CCB1DEBD911000021000048
:0E21DA00CDF2223E013D200522D8213E0632E4
:0D21E800DE21DD7D08FD21E4222100001133
:0E21F50000001922F221CB2CCB1DCB2CCB1DD0
:0E220300EBD9110000210000CDF2223E013D7A
:0E22110020052209223E06320F220887DDB585
:0E221F001708FD21E222210000110000192203
:0D222D002622CB2CCB1DCB2CCB1DEBD911C9
:0E223A000000210000CDF2223E013D200522D1
:0E2248003D223E0632432208DDB532F122FD72
:0D225600E1DDE1E1D1C1F1C9F5C5D5E5211A
:0E226300E222AFD3A07ED3A1233E01D3A07E02
:0E227100D3A1233E02D3A07ED3A1233E03D3EC
:0E227F00A07ED3A1233E04D3A07ED3A1233E94
:0E228D0005D3A07ED3A1233E06D3A07ED3A10D
:0E229B00233E07D3A03AF122D3A13E08D3A0E0
:0E22A9007ED3A123233E09D3A07ED3A12323FD
:0E22B7003E0AD3A07ED3A1233E0BD3A07ED33C
:0E22C500A1233E0CD3A07ED3A1233E0DD3A0B7
:0E22D3007EFEFF2805D3A132D522E1D1C1F154
:0E22E100C90000000000000000000000000026
:0E22EF000000004623CB18DA5023CB1838230A
:0E22FD0078E60F2007FD7707DD2E09C9DD2EDC
:0E230B0008923001AFFD7707CB18CD7924FD85
:0E2319007500FD7401D9C9DD2E084E2379E64A
:0E2327001F280632E822DD2E0078E60F9230E5
:0E23350001AFFD7707CB692003DD2CC9CB1863
:0E234300CB71CD6B24FD7500FD7401D9C9CBA3
:0E23510018300F3A43224F3A4B22B920053E76
:0E235F00FE32D522CB48C21C24FD360710DD0D
:0E236D002E084E2379E60F32F022CB4028577F
:0E237B00CB50CD6B24FD7500FD7401D9791F88
:0E2389001FE61C32922378D91800CB3CCB1DE6
:0E239700CB3CCB1DCB3CCB1DCB3CCB1DCB3C64
:0E23A500CB1DCB3CCB1DCB3CCB1D300123CB45
:0E23B3006F280CD97E23D9856FD97E23D98C53
:0E23C1006722EE22D9CB79C87E2332E822DDD6
:0E23CF002E00C9CB50CD6B2422EE22D9791FEF
:0E23DD001FE61C32E62378D91800CB25CB145E
:0E23EB00CB25CB14CB25CB14CB25CB14CB2587
:0E23F900CB14CB25CB14CB25CB14CB6F280CEB
:0E240700D97E23D9856FD97E23D98C67FD75C8
:0E24150000FD7401D918AACB4028077E23666B
:0E2423006FC3F222FD360710CB682005DD2EB8
:0E243100091813DD2E08DD63CB50CD6B24FDA2
:0E243F007500FD7401D9DD5C462378E60F328E
:0E244D00F022CB18CB18CB50CD6B2422EE2200
:0E245B00D9CB68C87E2332E822DD7DCB9FDD21
:0E2469006FC9280C7E23D9836FD97E23D98AB0
:0E24770067C9CB60280C7E23D9835FD97E23F2
:0E248500D98A57D97BCB5828088623FE903879
:0E249300023E8FD96F26002901D924097E232D
:0E24A100666F19C97E23CB3F3821D62038271D
:0E24AF0028173D5F7E572317300846DD68234F
:0E24BD0046DD60231717D04623B7C95E2318EB
:0E24CB00E71640D6015FD05E23B7C9C620C910
:0E24D900EE0E180E4D0D8E0CDA0B2F0B8F0A27
:0E24E700F7096809E1086108E90777070C07A3
:0E24F500A7064706ED0598054705FC04B4044C
:0E25030070043104F403BC0386035303240365
:0E251100F602CC02A4027E025A023802180220
:0E251F00FA01DE01C301AA0192017B016601EF
:0E252D0052013F012D011C010C01FD00EF00C9
:0E253B00E100D500C900BE00B300A9009F005A
:0E25490096008E0086007F00770071006A0009
:0E25570064005F005900540050004B00470024
:0E25650043003F003C003800350032002F00DC
:0E2573002D002A00280026002400220020004F
:0E2581001E001C001B0019001800160015009B
:0E258F00140013001200110010000F000E00C7
:0E259D000D000D000C000B000B000A000900E1
:0E25AB000900080008000700070007000600EE
:0E25B9000600060005000500050004000400F1
:0E25C7000400040004000300030003000300EE
:0E25D5000300020002000200020002000200E9
:0E25E3000200020002000100010001000100E0
:0E25F10001000100010001000040F5C5D5E524
:0E25FF00DDE5FDE5DD21F925DD5E00DD56019F
:0E260D002109001911B821EDA04E2346232209
:0A261B00CB20223021229521091165
:0E2625006120EDA011AF20EDA0111421EDA059
:0D263300117921EDA0114D20EDA0EDA022A8
:0D264000FB1F3E0132F01F32F61F3EFF323D
:0E264D00F0222ACB205E2356EB2323223D22CF
:0E265B0022092222D821FDE1DDE1E1D1C1F109
:0E266900C921E922010003712310FC3E3F321B
:05267700F122C35E2208
:0EC685002118BECD6E2D3B000306090C0F12CE
:0EC6930015181B1E2124272A2D303336393B63
:0EC6A1003E414346494B4E50525557595B5E41
:0EC6AF006062646667696B6C6E7071727475A0
:0EC6BD00767778797A7B7B7C7D7DFB7E017FB2
:0EC6CB00FB7E757D7D7C7B7B7A79787776753A
:0EC6D900747271706E6C6B6967666462605E8D
:0EC6E7005B59575552504E4B494643413E3B1E
:0EC6F500393633302D2A2724211E1B1815122A
:0EC703000F0C09060300FDFAF7F4F1EEEBE867
:0EC71100E5E2DFDCD9D6D3D0CDCAC7C5C2BFA2
:0EC71F00BDBAB7B5B2B0AEABA9A7A5A2A09E99
:0EC72D009C9A9997959492908F8E8C8B8A8906
:0EC73B008887868585848383FB820181FB824B
:0EC749003A8383848585868788898A8B8C8EC7
:0EC757008F9092949597999A9C9EA0A2A5A768
:0EC76500A9ABAEB0B2B5B7BABDBFC2C5C7CAA8
:0EC77300CDD0D3D6D9DCDFE2E5E8EBEEF1F471
:04C78100F7FAFD00C6
:0E267C00DDE5DD210000DD39DD4E04DD460523
:0E268A000A5FB7280CC57BF533CD871D33C121
:0E2698000318EFDDE1C9DDE5DD210000DD39CD
:0E26A600DD7E043D4F79CB7FC2FC26795F17A5
:0E26B4009F57CB23CB12CB23CB127B3CF5DD03
:0E26C2005E05DD5606F11804CB3ACB1B3D2019
:0E26D000F97BE60FE60F5F433E0990300F786E
:0E26DE00C6375FC57BF533CD871D33C1180CA1
:0E26EC0078C63047C5C533CD871D33C10DC339
:0E26FA00AB26DDE1C9DDE5DD210000DD39DDC7
:0E2708004E040600C53E02F533CD9E26F13389
:0E271600DDE1C9DDE5DD210000DD39DD6E0409
:0E272400DD6605E53E04F533CD9E26F133DD7E
:0E273200E1C9DDE5DD210000DD393E00DD9668
:0E274000043E00DD9E05F29327DD4E04DD46CB
:0E274E0005C5FDE1FDE5DD6E06DD6607E5CDA6
:0E275C001C2EF1F1444DC5FDE1210A00E5FD02
:0E276A00E5CDA32DF1F17DC630F533CD871DF1
:0D27780033210A00E5DD6E04DD6605E5CDC8
:0E278500E62DF1F144DD7504DD7005C33C273F
:0E279300DDE1C9DDE5DD210000DD39DD4E04AC
:0E27A1000600C5216400E5CD3427F1F1DDE12D
:0E27AF00C9DDE5DD210000DD39DD6E04DD66EB
:0E27BD0005E5211027E5CD3427F1F1DDE1C956
:0EC785002118BFCD6E2D3B000306090C0F12CC
:0EC7930015181B1E2124272A2D303336393B62
:0EC7A1003E414346494B4E50525557595B5E40
:0EC7AF006062646667696B6C6E70717274759F
:0EC7BD00767778797A7B7B7C7D7DFB7E017FB1
:0EC7CB00FB7E757D7D7C7B7B7A797877767539
:0EC7D900747271706E6C6B6967666462605E8C
:0EC7E7005B59575552504E4B494643413E3B1D
:0EC7F500393633302D2A2724211E1B18151229
:0EC803000F0C09060300FDFAF7F4F1EEEBE866
:0EC81100E5E2DFDCD9D6D3D0CDCAC7C5C2BFA1
:0EC81F00BDBAB7B5B2B0AEABA9A7A5A2A09E98
:0EC82D009C9A9997959492908F8E8C8B8A8905
:0EC83B008887868585848383FB820181FB824A
:0EC849003A8383848585868788898A8B8C8EC6
:0EC857008F9092949597999A9C9EA0A2A5A767
:0EC86500A9ABAEB0B2B5B7BABDBFC2C5C7CAA7
:0EC87300CDD0D3D6D9DCDFE2E5E8EBEEF1F470
:04C88100F7FAFD00C5
:0E27CB00DDE5DD210000DD39F5DD4E04DD46E3
:0E27D90005DD5E06DD5607DD7E08DD77FEDDE0
:0E27E7007E09DD77FFDD7EFEDDB6FF28131ACA
:0E27F500020313DD6EFEDD66FF2BDD75FEDDDB
:0D28030074FF18E5DDF9DDE1C9DDE5DD213B
:0E2810000000DD39DD4E04DD4605DD5E07DD2E
:0E281E0056087BB22808DD7E0602031B18F464
:03282C00DDE1C922
:0EC885002118C0CD6E2D3B000306090C0F12CA
:0EC8930015181B1E2124272A2D303336393B61
:0EC8A1003E414346494B4E50525557595B5E3F
:0EC8AF006062646667696B6C6E70717274759E
:0EC8BD00767778797A7B7B7C7D7DFB7E017FB0
:0EC8CB00FB7E757D7D7C7B7B7A797877767538
:0EC8D900747271706E6C6B6967666462605E8B
:0EC8E7005B59575552504E4B494643413E3B1C
:0EC8F500393633302D2A2724211E1B18151228
:0EC903000F0C09060300FDFAF7F4F1EEEBE865
:0EC91100E5E2DFDCD9D6D3D0CDCAC7C5C2BFA0
:0EC91F00BDBAB7B5B2B0AEABA9A7A5A2A09E97
:0EC92D009C9A9997959492908F8E8C8B8A8904
:0EC93B008887868585848383FB820181FB8249
:0EC949003A8383848585868788898A8B8C8EC5
:0EC957008F9092949597999A9C9EA0A2A5A766
:0EC96500A9ABAEB0B2B5B7BABDBFC2C5C7CAA6
:0EC97300CDD0D3D6D9DCDFE2E5E8EBEEF1F46F
:04C98100F7FAFD00C4
:0E282F00DDE5DD210000DD39210DBE7EDD86F8
:0E283D0004232BC54F237E47792B7778C1DD0E
:07284B008E052377DDE1C9D2
:0E285200DDE5DD210000DD392A39002218C144
:0E286000F3DD6E04DD6605223900FBDDE1C903
:09286E00F32A18C1223900FBC94C
:0EC98500FD211BC1FD3600CDFD211BC1FD367D
:02C9930001831E
:0E287700DDE5DD210000DD39DBAAE6F0DDB68F
:0E288500044FD3AADBA9DDA6054748AFB1205A
:0E289300042E0118022E00DDE1C9DDE5DD2175
:0D28A1000000DD39FDE5C5D5E5DD7E043222
:0E28AE00AFFCDD215F00FD2AC0FCCD1C00E167
:0E28BC00D1C1FDE1DDE1C9DDE5DD210000DD7A
:0E28CA0039DD7E04D399DD4E05060079F64017
:0E28D8004FD399DDE1C9DDE5DD210000DD39DA
:0E28E600DD7E04D399DD4E05060079F6404FE5
:0E28F400D399DD7E06D398DDE1C9DDE5DD2157
:0E2902000000DD39DD7E04D399DD4E050600B0
:0D29100079D399DB986FDDE1C9DDE5DD21AC
:0E291D000000DD39D5C5DD5604DD4E05DD4672
:0E292B0006C5CB38CB19CB38CB19CB38CB191E
:0E29390078B1CA5C297AD39800D39800D3985D
:0E29470000D39800D39800D39800D39800D303
:0E295500980B78B1C23E29C179E607CA6B29FA
:0E2963004F7AD3980DC26529C1D1DDE1C9DDDF
:0E297100E5DD210000DD39D5C5DD5604DD4E63
:0E297F0005DD4606C5CB38CB19CB38CB19CBBE
:0E298D0038CB1978B1CAC8297AD39800000057
:0E299B0000D39800000000D39800000000D385
:0E29A9009800000000D39800000000D39800B2
:0E29B700000000D39800000000D3980B78B108
:0E29C500C29529C179E607CADA294F7AD3985C
:0E29D3000000000DC2D129C1D1DDE1C9DDE552
:0E29E100DD210000DD39D5E5C5DD6E04DD66C3
:0E29EF0005DD5E06DD5607D50E98CB3ACB1BF4
:0E29FD00CB3ACB1BCB3ACB1B7AB3CA202AEDC8
:0E2A0B00A3EDA3EDA3EDA3EDA3EDA3EDA3EDCD
:0E2A1900A31B7AB3C20A2AD17BE607CA2A2A77
:0D2A270047EDB3C1E1D1DDE1C9DDE5DD2101
:0E2A34000000DD39D5E5C5DD6E04DD6605DD8B
:0E2A42005E06DD5607D50E98CB3ACB1BCB3A7D
:0E2A5000CB1BCB3ACB1B7AB3CA7F2AEDA30077
:0E2A5E0000EDA30000EDA30000EDA30000EDCD
:0E2A6C00A30000EDA30000EDA30000EDA31BEE
:0E2A7A007AB3C25B2AD17BE607CA8E2A47EDEB
:0E2A8800A378B7C2872AC1E1D1DDE1C9DDE53F
:0E2A9600DD210000DD39D5E5C5DD6E04DD660D
:0E2AA40005DD5E06DD56070E98EDA3EDA3EDF1
:0E2AB200A3EDA3EDA3EDA3EDA3EDA3EDA3ED26
:0E2AC000A3EDA3EDA3EDA3EDA3EDA3EDA3ED18
:0E2ACE00A3EDA3EDA3EDA3EDA3EDA3EDA3ED0A
:0E2ADC00A3EDA3EDA3EDA3EDA3EDA3EDA3EDFC
:0E2AEA00A3EDA31B7AB3C2AD2AC1E1D1DDE199
:0E2AF800C9DDE5DD210000DD39DD7E05D39965
:0E2B0600DD7E04F680D399DDE1C9DDE5DD2139
:0E2B14000000DD39DD7E04D632200A210902E0
:0E2B2200E5CDF92AF11808210900E5CDF92AC0
:0E2B3000F1DDE1C9DB996FC9DDE5DD210000B3
:0E2B3E00DD39DD7E04F5333E0FF533CDF92A87
:0E2B4C00F1DB994FC5210F00E5CDF92AF1C14B
:0E2B5A0069DDE1C9DDE5DD210000DD39DD4E7C
:0E2B680006DD5E04DD5605CB23CB12CB23CB5E
:0E2B76001221031B19EB79F533D5CDDE28F1C2
:0E2B840033DDE1C9DDE5DD210000DD39DD4E88
:0D2B920004DD4605CB21CB10CB21CB10215B
:0E2B9F00001B09EBC5DD7E07F533D5CDDE2822
:0E2BAD00F133C121011B094D44DD7E06F533D5
:0D2BBB00C5CDDE28F133DDE1C9DDE5DD210A
:0E2BC8000000DD39DD4E04DD4605CB21CB10CB
:0E2BD600CB21CB1021021B094D44DD7E06F5FC
:0E2BE40033C5CDDE28F133DDE1C9DDE5DD21AD
:0E2BF2000000DD39DD7E04D3993E90D399DDDD
:0E2C00007E0507070707E6F04FDD8607D39A2B
:0E2C0E00DD7E06D39ADDE1C9DDE5DD210000A3
:0E2C1C00DD393E0FD3A0DBA24FDD7E04D601D2
:0E2C2A00200A79E68047F603D3A1180879E660
:0E2C3800804FF64CD3A13E0ED3A0DBA2EEFFE0
:0E2C46006FDDE1C90E08000DAFB120FAC9DD47
:0E2C5400E5DD210000DD39F5DD7E04D601202E
:0E2C620005019310180301EC20C5CD4A2CC1CA
:0E2C7000C5CD4A2CC13E0FD3A079D3A179A8BF
:0E2C7E004FC5CD4A2CC13E0ED3A0DBA257E6B7
:0E2C8C000F5F07070707E6F0DD77FE3E0FD368
:0E2C9A00A079D3A179A84FC5D5CD4A2CD1C1C0
:0E2CA8003E0ED3A0DBA2DD77FFE60F5FDDB6A8
:0E2CB600FEDD77FE3E0FD3A079D3A179A84FA3
:0E2CC400C5D5CD4A2CD1C13E0ED3A0DBA2DD7A
:0E2CD20077FFE60F07070707E6F0473E0FD330
:0E2CE000A079D3A1C5D5CD4A2CD1C13E0ED3CB
:0E2CEE00A0DBA2DD77FFE60FB047E5DD6E0547
:0E2CFC00DD6606E5FDE1E1AFDD9EFE4FFD71F8
:0E2D0A0000E5DD6E07DD6608E5FDE1E1AF984E
:0E2D180047FD70007AEEFF6FDDF9DDE1C9F3D3
:0E2D26003E01D3993E8FD399DB994F3E00D3E7
:0E2D3400993E8FD399FB79E60128032E00C942
:0E2D42002E01C9F3FD21C1F1FD360001FD3661
:0E2D50000100FB7676C9D52A1BC111CD83ED9B
:0D2D5E005F835F19CB0CCB1D221BC1D12A56
:032D6B001BC1C9C0
:0E2D6E004D44E15E23CB7BCA832D7E230203FE
:0E2D7C001CC27A2DC3712DAFB3CA932D7E23D6
:0B2D8A0002031DC2882DC3712DE5C996
:0E2D9500210300395E2B6E4DCD9F2E6B62C95F
:0E2DA30021050039562B5E2B7E2B6E67444DAA
:0E2DB100CDA22E6B62C9210300395E16002BE5
:0B2DBF004E79079F47CD692E6B62C95B
:0E2DCA00210300395E2B6E4DCD612E6960C96C
:0E2DD800210300395E2B6E4DCD612E6B62C95A
:0E2DE60021050039562B5E2B7E2B6E67444D67
:0E2DF400CD692E6960C921050039562B5E2B72
:0C2E02007E2B6E67444DCD692E6B62C9BB
:0E2E0E00210300395E2B6E4DCD9F2E6960C9E9
:0E2E1C0021050039562B5E2B7E2B6E67444D30
:0E2E2A00CDA22E6960C9210300395E2B4E0631
:0E2E380000CD652E6960C9210300395E2B4E66
:0E2E46000600CD652E6B62C9210300395E16B1
:0E2E5400002B4E79079F47CD692E6960C97922
:0E2E6200079F477B079F5778F5AAF5CB7A2884
:0E2E70000697935F9F9257CB78280697914F55
:0E2E7E009F9047CDA22E3816F1E680280697C9
:0E2E8C00914F9F9047F1E680C897935F9F9209
:0D2E9A0057C9F1F1C90600507BB2200701B5
:0E2EA7000000505937C9210000B7083E10083E
:0E2EB500CB11CB10ED6AE5ED523F3803E1186A
:0E2EC300023333083DC2B42E08545DCB11CB50
:032ED10010B7C96E
:00000001FF
